:020000041008E2
:100000000000080865200910792C09103523091013
:100010007D2C0910812C0910852C0910000000008E
:10002000000000000000000000000000292409106A
:10003000892C0910000000008D2C0910912C09104A
:1000400043150910691509108F150910B515091008
:10005000DB15091001160910271609104D16091095
:10006000952C0910992C09109D2C0910A12C091010
:10007000A52C0910A92C0910AD2C0910B12C0910C0
:10008000C82E002E802E3DB1C82E002E802E91034A
:10009000802EBCB0802EA303C82E002E802E00B070
:1000A0005030212E59F51030212E6AF5802E3B0359
:1000B0000000000008190100220075000010001067
:1000C000D100B343802E00C1802E00C1802E00C11C
:1000D000802E00C1802E00C1802E00C1802E00C164
:1000E000802E00C1802E00C1802E00C1802E00C154
:1000F000802E00C1802E00C1802E00C1802E00C144
:10010000802E00C1802E00C1802E00C1802E00C133
:10011000802E00C1802E00C1802E00C1802E00C123
:10012000802E00C1802E00C1802E00C1802E00C113
:10013000802E00C1802E00C1802E00C1802E00C103
:10014000802E00C1802E00C1802E00C1802E00C1F3
:10015000802E00C1802E00C1802E00C1802E00C1E3
:10016000802E00C1802E00C1802E00C1E05F000003
:1001700000000100000000000000000000009200EC
:10018000000000000000000000000000000000006F
:1001900008190000880000000000000005E0AA38EF
:1001A00005E09030FA0096004B09110011000200A2
:1001B0002D01D47B3B01DB7A04003F7BCD6CC30473
:1001C0008509C304ECE60C460100270019009600DF
:1001D000A00001000C00F03C000101000300010040
:1001E0000E00000032000500EE060400C80000000A
:1001F0000400A805EE060004BC02B3008507000059
:1002000000000000000000000000000000000000EE
:100210000000B4000100B9000100980000000000D7
:100220000000000001008000040000000000000049
:1002300000000000000000000000000000000000BE
:1002400000000000000000000000000000000000AE
:10025000000000000000000000000000000000009E
:10026000000000000000000000000000000000008E
:1002700000000000000000000000802E00C1FD2DE5
:10028000DE00EB00DA00000CFF0F0004C0005BF59D
:10029000C9011EF280003FFF19F458F566F564F5B8
:1002A000C0F1F000E000CD01D301DB01FF7FFF01D1
:1002B000E40074F7F300FA00FF3FCA036C3856FEFF
:1002C00044FDBC02F90600FC1202AE0158FA9AFD88
:1002D0007705BB02960195017F01820189018701A3
:1002E00088018A018C018F018D0192019101DD004D
:1002F0009F017E01DB00B601706926D39C071F05B4
:100300009D000008BC0537FAA201AA01A101A801BD
:10031000A001A805B401B401CE00D000FC00C501C5
:10032000FFFBB10000380030FDF5FCF5CD01A00069
:100330005FFF0040FF0000806D0FEB007FFFC2F504
:1003400068F7B3F1670F5B0F610F800F58F75BF72A
:10035000830F8600720F850FC6F17F0F6CF700E0E8
:1003600000FFD1F5870F8A0FFF03F03F8B008E004F
:100370009000B9002DF5CAF5CB0120F20000000075
:10038000000000000000000000000000000000006D
:10039000000000000000000000000000000000005D
:1003A000000000000000000000000000000000004D
:1003B000000000000000000000000000000000003D
:1003C000000000000000000000000000000000002D
:1003D000000000000000000000000000000000001D
:1003E000000000000000000000000000000000000D
:1003F00000000000000000000000000000000000FD
:1004000000000000000000000000000000000000EC
:1004100000000000000000000000000000000000DC
:1004200000000000000000000000000000000000CC
:1004300000000000000000000000000000000000BC
:1004400000000000000000000000000000000000AC
:1004500000000000000000003050982ED70E5032EF
:10046000982EFA030030F07F002E002ED02E002EA2
:10047000018008A2FB2F982EBA03212E1900012E0D
:10048000EE0000B2072F012E190000B2032F015019
:100490000352982E07CC012EDD0000B2272F052E27
:1004A0008A000552982EC7C1032EE90040B2F07FA2
:1004B000082F012E190000B2042F0030212EE90070
:1004C000982EB4B1012E180000B2102F0550982EAE
:1004D0004DC30550982E5AC7982EF9B4982E54B291
:1004E000982E67B6982E17B21030212E7700012E65
:1004F000EF0000B2042F982E7AB70030212EEF00C3
:10050000012ED40004AE0B2F012EDD0000B2072F08
:100510000552982E8E0E00B2022F1030212E7D0033
:10052000012E7D000090902EF102012ED70000B226
:10053000042F982E2F0E0030212E7B00012E7B00E1
:1005400000B2122F012ED4000090022F982E1F0E01
:10055000092D982E810D012ED4000490022F5032C7
:10056000982EFA030030212E7B00012E7C0000B271
:10057000902E0903012E7C000131010800B2042FE6
:10058000982E47CB1030212E77008130012E7C0031
:10059000010800B2612F032E8900012ED40098BCFF
:1005A00098B805B20F58232F079009540030372F01
:1005B00015410441DCBE44BEDCBA2C0161000F567B
:1005C0004A0F0C2FD14294B8C1421130052E6AF760
:1005D0002CBD2FB980B20822982EC3B7212D6130CF
:1005E000232ED400982EC3B70030212E5AF5182D93
:1005F000E17F5030982EFA030F520750504270306E
:100600000D5442427E82E26F80B24242052F212E7B
:10061000D4001030982EC3B7032D6030212ED400A3
:10062000012ED4000690182F012E76000B5407528D
:10063000E07F982E7AC1E16F081A4030082F212EF2
:10064000D4002030982EAFB75032982EFA03052DE3
:10065000982E380E0030212ED4000030212E7C0040
:10066000182D012ED40003AA012F982E450E012E1D
:10067000D4003F8003A2012F002E022D982E5B0E86
:100680003030982ECEB70030212E7D005032982E7B
:10069000FA03012E770000B2242F982EF5CB032EFB
:1006A000D5001154010ABC848386212EC901E04083
:1006B0001352C4408240A8B9524243BE5342040A76
:1006C0005042E17FF0314140F26F25BD0808020A37
:1006D000D07F982EA8CF06BCD16FE26F080A804267
:1006E000982E58B70030212EEE00212E7700212EB3
:1006F000DD00802EF4011A242200802EEC0110501F
:10070000FB7F982EF3035750FB6F01307154114259
:10071000420EFC2FC02E0142F05F802E00C1FD2D45
:100720000100000000000000000000009A013403F6
:1007300000000000000000000000000000000000B9
:1007400000000000000000000000000000000000A9
:100750000000000000000000000000000000000099
:100760000000000000000000000000000000000089
:100770000000000000000000000000000000000079
:100780000000000000000000000000000000000069
:100790000000000000000000000000000000000059
:1007A00000002050E77FF67F06320F2E61F5FE092C
:1007B000C0B3042F17302F2EEF002D2E61F5F66FEA
:1007C000E76FE05FC82E2050E77FF67F46300F2EA0
:1007D000A4F1BE0980B3062F0D2ED40084AF022FE2
:1007E00016302D2E7B0086302D2E60F5F66FE76FCC
:1007F000E05FC82E012E77F709BC0FB800B2105089
:10080000FB7F10300B2F032E8A0096BC9FB840B29E
:10081000052F032E68F79EBC9FB840B2072F032E0A
:100820007E004190012F982EDC03032C0030212EF6
:100830007E00FB6FF05FB82E2050E07FFB7F002E24
:100840002750982E3BC82950982EA7C80150982EA3
:1008500055CCE16F2B50982EE0C9FB6F0030E05F64
:10086000212E7E00B82E7350013057541142420E93
:10087000FC2FB82E212E59F51030C02E212E4AF112
:100880009050F77FE67FD57FC47FB37FA17F907FB5
:10089000827F7B7F982E35B700B2902E97B0032EC3
:1008A0008F00072E9100052EB1003FBA9FB8012E90
:1008B000B100A3BD4C0A052EB10004BEBFB9CB0ADE
:1008C0004FBA22BD012EB300DC0A2FB9032EB800A7
:1008D0000ABE9A0ACFB99BBC012E97009FB8930A13
:1008E0000FBC910A0FB8900A252E1800052EC1F5ED
:1008F0002EBD2EB9012E190031308A040090072F29
:10090000012ED40004A2032F012E180000B20C2FD8
:1009100019500552982E4DB7052E78008090103052
:10092000012F212E7800252EDD00982E3EB700B233
:1009300002300130042F012E190000B2002F2130A7
:10094000012EEA00081A0E2F232EEA0033301B5026
:100950000B090140175646BE4B084C0A01420A805B
:1009600015520142002E012E180000B21F2F032E37
:10097000C0F5F030480847AA7430072E7A0061228B
:100980004B1A052F072E66F5BFBDBFB9C0900B2FC0
:100990001D562B30D242DB420104C24204BDFE8010
:1009A0008184232E7A0002420232252E62F5052E22
:1009B000D6008184252ED6000231252E60F5052E25
:1009C0008A000B50900880B20B2F052ECAF5F03E1E
:1009D0009008252ECAF5052E59F5E03F9008252EE2
:1009E00059F5906FA16FB36FC46FD56FE66FF76F56
:1009F0007B6F826F705FC82EC050907FE57FD47F81
:100A0000C37FB17FA27F877FF67F7B7F002E012E81
:100A100060F5607F982E35B70230636F1552507FB6
:100A2000627F5A2C02321A0900B3142F00B2032F2E
:100A3000092E180000910C2F437F982E97B71F5056
:100A4000028A02320430252E64F51552506F436F2E
:100A50004443252E60F5D908C0B2362F982E3EB7F4
:100A600000B2062F012E190000B2022F506F009025
:100A70000A2F012E79000090192F1030212E7900B5
:100A80000030982EDC03132D012EC3F50CBC0FB8DB
:100A90001230100403B0262521500352982E4DB772
:100AA0001030212EEE000230607F252E7900606F1D
:100AB0000090052F0030212EEA001550212E64F5FC
:100AC0001552232E60F50232506F0090022F033032
:100AD000272E7800072E60F51A090091A32F190917
:100AE0000091A02F906FA26FB16FC36FD46FE56FAD
:100AF0007B6FF66F876F405FC82EC050E77FF67F31
:100B000026300F2E61F52F2E7C000F2E7C00BE09A3
:100B1000A27F807F80B3D57FC47FB37F917F7B7FAF
:100B20000B2F23501A251240427F74821240527FAD
:100B3000002E0040607F982E6AD68130012E7C0006
:100B4000010800B2422F032E8900012E890097BCB4
:100B500006BC9FB80FB80090232ED800103001308B
:100B60002A2F032ED40044B2052F47B200302D2F78
:100B7000212E7C002B2D032EFDF59EBC9FB84090AE
:100B8000142F032EFCF599BC9FB840900E2F032E16
:100B900049F125544A084090082F982E35B700B2E5
:100BA0001030032F5030212ED400102D982EAFB7C7
:100BB0000030212E7C000A2D052E69F72DBD2FB99E
:100BC00080B2012F212E7D00232E7C00E031212ECA
:100BD00061F5F66FE76F806FA26FB36FC46FD56F6B
:100BE0007B6F916F405FC82E60510A253688F47F75
:100BF000EB7F0032315232301330982E15CB0A255C
:100C00003384D27F433005502D52982E95C1D26F38
:100C10002752982ED7C72A25B086C07FD37FAF84AE
:100C20002950F16F982E4DC82A25AE8AAA88F26EF7
:100C30002B50C16FD36FF47F982EB6C8E06E00B210
:100C4000322F33548386F16FC37F04303030F47F0A
:100C5000D07FB27FE330C56F56404541280803146A
:100C60000EB408BC8240100A2F542605917F4428F8
:100C7000A37F982ED9C008B933305309C16FD36F01
:100C8000F46F831747406C15B26FBE09750B904225
:100C90004542510E32BC0289A16F7E86F47FD07F1F
:100CA000B27F0430916FD62FEB6FA05EB82E032E6B
:100CB00097001BBC60509FBC0CB8F07F40B2EB7F2C
:100CC0002B2F032E7F004140012EC800011A112F47
:100CD0003758232EC8001041A07F38810141D07FB2
:100CE000B17F982E64CFD06F0780A16F1142002E84
:100CF000B16F01421130012EFC0000A80330CB225D
:100D00004A25012E7F003C8935520554982EC4CEC9
:100D1000C16FF06F982E95CF042D0130F06F982E93
:100D200095CFEB6FA05FB82E032EB3000232F030E8
:100D3000033130508A080808CB08E07F80B2F37F87
:100D4000DB7F252F032ECA004190042F0130232E74
:100D5000CA00982E3F03C0B2052F032EDA000030E0
:100D60004104232EDA00982E92B21025F06F00B2C3
:100D7000052F012EDA0002301004212EDA0040B2D5
:100D8000012F232EC801DB6FE06FD05F802E95CF3F
:100D90000130E06F982E95CF1130232ECA00DB6F03
:100DA000D05FB82ED0500A2533845550D27FE27FD1
:100DB000038CC07FBB7F0030055A39545141A57F59
:100DC000967F807F982ED9C00530F57F2025916FC2
:100DD0003B583D5C3B56982E67CCC16FD56F524057
:100DE0005043C17FD57F1025982EFEC91025982E1F
:100DF00074C0866F3028926F828CA56F6F52690E17
:100E00003954DB2F19A01530032F0030212E81011A
:100E10000A2D012E810105284236212E8101020E64
:100E2000012F982EF303575012300140982EFEC91F
:100E3000516F0B5C8E0E3B6F57580230212E95017F
:100E4000456F2A8DD27FCB7F132F02303F50D27F48
:100E5000A80E0E2FC06F535402005154420E103092
:100E600059520230012F002E032D504242421230BF
:100E7000D27F80B2032F0030212E8001122D012E4F
:100E8000C9000280052E8001113091280040252ED6
:100E90008001100E052F012E7F010190012F982E49
:100EA000F303002EA0410190A67F902EE3B4012E03
:100EB000950100A8902EE3B45B549580824080B2E7
:100EC00002402D8C3F52967F902EC2B3290E762F72
:100ED000012EC900004081284552B330982E0FCA18
:100EE0005D54807F002EA140727F82808240607FAF
:100EF000982EFEC91025982E74C0626F0530874069
:100F0000C0910430052F052E830180B21430002FCC
:100F10000430052EC900736F8140E2406904110F4F
:100F2000E1401630FE29CB40022F836F830F222F22
:100F30004756130F1230772F4954420E1230732F39
:100F400000910A2F012E8B0119A802306C2F6350DB
:100F5000002E17420542682C12300B25080F503026
:100F6000022F212E8301032D4030212E83012B2EB1
:100F700085015A2C123000912B25042F635002302A
:100F80001742172C0242982EFEC91025982E74C0C5
:100F9000052EC90081845B308240372E8301020E0A
:100FA000072F5F52403062404140910E012F212EA9
:100FB000830105302B2E85011230362C1630152575
:100FC000817F982EFEC91025982E74C019A2163064
:100FD000152F052E9701806F820E052F012E860199
:100FE0000628212E86010B2D032E87015F544E28E3
:100FF0009142002E8240900E012F212E8801023056
:10100000132C0530C06F081CA80F163005305B503C
:10101000092F02802D2E820105420580002E0242FA
:101020003E80002E06420230906F3E88014004410F
:101030004C280142078010252440004000A8F522DA
:10104000232944427A827E884340044100ABF52341
:10105000DF284342D9A0142F0090022FD26F81B213
:10106000052F6354062890428542092C02305B50BC
:101070000380292E7E012B2E8201054212302B2E59
:1010800083014582002E40407A8202A0082F6350DF
:101090003B30154205423780372E7E010542123023
:1010A000012EC900028C404084417A8C040F032F2A
:1010B000012E8B0119A4042F2B2E8201982EF303ED
:1010C000123081906152082F654265424380398415
:1010D00082880542454285420543002E80410090AA
:1010E000902EE1B46554C16F804000B243586950FE
:1010F000442F555CB7878C0F0D2E9601C440362FB8
:1011000041568B0E2A2F0B52A10E0A2F052E8F014E
:101110001425982EFEC94B54020F695005306554B2
:10112000152F032E8E014D5C8E0F3A2F052E8F0149
:10113000982EFEC94F54820F053069506554302FE8
:101140006D521530428C454204302B2C84436B5237
:10115000428C002E85431530242C45428E0F202FC3
:101160000D2E8E01B10E1C2F232E8E011A2D0E0E68
:10117000172FA10F152F232E8D01132D982E74C01C
:101180004354C20E0A2F655004800B3006820B4276
:10119000798041401230252E8C0101420530695082
:1011A000655484824384BE8C8440864126299442BF
:1011B000BE8ED57F19A143400B2E8C018440C741C0
:1011C0005D29272945428442C27F012FC0B31D2FCC
:1011D000052E940199A0012F80B3132F80B3182FEF
:1011E000C0B3162F12400140927F982E74C0926FA8
:1011F000100F2030032F1030212E7E010A2D212EBA
:101200007E01072D2030212E7E01032D1030212E4E
:101210007E01C26F012EC900BC8402808240004062
:10122000900ED56F022F1530982EF30341910530A3
:10123000072F67503D802B2E8F0105420480002E22
:101240000542022C00300030A26F988A864080A7A9
:10125000052F982EF303C030212E950106251A255F
:10126000E26F768296405643510EFB2FBB6F305F84
:10127000B82E012EB8000131410840B22050F230A2
:101280000208FB7F0130102F052ECC008190E07FFB
:10129000032F232ECC00982E55B6982E1DB5102561
:1012A000FB6FE06FE05F802E95CF982E95CF1030CA
:1012B000212ECC00FB6FE05FB82E00510558EB7F6C
:1012C0002A2589526F5A895013410640B3011642AC
:1012D000CB160640F3021342650EF52F054014307D
:1012E0002C29044208A10030902E52B6B388B08A4F
:1012F000B684A47FC47FB57FD57F927F73300430DE
:10130000554042408A17F3086B01900253B84B8254
:10131000ADBE717F450A0954847F982ED9C0A36F52
:101320007B54D042A37FF27F607F2025716F755A76
:101330007758795C7556982E67CCB16F626F5042C2
:10134000B17FB3301025982E0FCA846F2029716F9A
:10135000926FA56F76826A0E73300030D02FD26FF5
:10136000D17FB47F982E2BB715BD0BB8020AC26F80
:10137000C07F982E2BB715BD0BB8420AC06F081757
:1013800041188916E118D018A17F27251625982E17
:1013900079C08B54907FB330824080900D2F7D5266
:1013A000926F982E0FCAB26F900E062F8B5014308A
:1013B000426F516F144212420142002E316F982E3B
:1013C00074C0416F807F982E74C0826F10044352A6
:1013D000010F052ECB0000300430212F516F4358F0
:1013E0008C0E04301C2F8588416F04418C0F043013
:1013F000162F8488002E044104058C0E04300F2F14
:101400008288316F044104058C0E0430082F8388D4
:10141000002E04418C0F0430022F212EAD01143018
:101420000091142F032EA10141900E2F032EAD0128
:1014300014304C28232EAD0146A0062F81848D52F6
:1014400048828240212EA10142425C2C0230052EAE
:10145000AA0180B20230552F032EA901926FB3303A
:10146000982E0FCAB26F900F003002304A2FA26F31
:10147000875291008552510E022F002E432C0230CC
:10148000C26F7F52910E02303C2F516F8154982EC3
:10149000FEC91025B3302125982E0FCA326FC07FA8
:1014A000B3301225982E0FCA426FB07FB330122589
:1014B000982E0FCAB26F90288352982EFEC9C26F21
:1014C000900F003002301D2F052EA10180B2123086
:1014D0000F2F426F032EAB01910E0230122F526F6D
:1014E000032EAC01910F02300C2F212EAA010A2CE1
:1014F0001230032ECB008D58088941401143004320
:10150000252EA101D46F8F5200433A89002E10433B
:101510001043610EFB2F032EA001111A022F02258A
:10152000212EA001EB6F005FB82E915210300230D7
:10153000955652424B0EFC2F8D5488829356804212
:101540005342404242868354C02EC242002EA352D0
:101550000051524047401A25012E97008FBE7286D7
:10156000FB7F0B307CBFA5501008DFBA7088F8BF36
:10157000CB42D37F6CBBFCBBC50A907F1B7F0B4368
:10158000C0B2E57FB77FA67FC47F902E1CB7072E21
:10159000D200C0B20B2F9752012ECD00827F982E21
:1015A000BBCC0B30372ED200826F906F1A2500B261
:1015B0008B7F142FA6BD25BDB6B92FB980B2D4B08C
:1015C0000C2F99549B560B300B2EB100A1589B4207
:1015D000DB426C092B2EB1008B42CB42867F738499
:1015E000A756C30839520550727F637F982EC2C038
:1015F000E16F626FD10A012ECD00D56FC46F726F9B
:1016000097529D5C982E06CD236F906F9952C0B271
:1016100004BD5440AFB94540E17F0230062FC0B24F
:101620000230032F9B5C12309443854303BF6FBB92
:1016300080B3202F066F2601166F6E034542C090BF
:10164000292ECE009B52142F9B5C002E9341864185
:10165000E304AE0780AB042F80910A2F866F730FCF
:10166000072F836FC0B2042F544245421230042C1E
:101670001130022C1130113002BC0FB8D27F00B2F1
:101680000A2F012EFC00052EC701101A022F212E51
:10169000C701032D022C01300130B06F982E95CF79
:1016A000D16FA06F982E95CFE26F9F52012ECE0082
:1016B000824050420C2C42421130232ED200013085
:1016C000B06F982E95CFA06F0130982E95CF002E39
:1016D000FB6F005FB82E83860130003094402418E1
:1016E0000600530E4F02F92FB82EA952002E60406B
:1016F00041400DBC98BCC02E010A0FB8AB52533C00
:10170000524040404B00821626B901B841401008B3
:1017100097B80108C02E11300108438625400440C7
:10172000D8BE2C0B2211544203804B0EF62FB82E3C
:101730009F501050AD52052ED300FB7F002E13405A
:101740009342410EFB2F982EA5B7982E87CF012EDE
:10175000D90000B2FB6F0B2F012E69F7B13F0108D2
:101760000130F05F232ED900212E69F7802E7AB741
:10177000F05FB82E012EC0F8032EFCF51554AF56BD
:1017800082080B2E69F7CB0AB1588090DDBE4C0859
:101790005FB959228090072F0334C308F23A0A0830
:1017A0000235C0904A0A4822C02E232EFCF5105064
:1017B000FB7F982E56C7982E49C31030FB6FF05F01
:1017C000212ECC00212ECA00B82E032ED30016B82D
:1017D00002344A0C212E2DF5C02E232ED30003BC3B
:1017E000212ED500032ED50040B21030212E7700D7
:1017F0000130052F052ED8008090012F232E6FF584
:10180000C02E212ED90011308108012E6AF7713FB8
:1018100023BD0108020AC02E212E6AF730250030B0
:10182000212E5AF51050212E7B00212E7C00FB7FAB
:10183000982EC3B74030212ED400FB6FF05F0325F4
:10184000802EAFB7802E00C1802E00C1802E00C137
:10185000802E00C1802E00C1802E00C1802E00C1CC
:10186000802E00C1802E00C1802E00C1802E00C1BC
:10187000802E00C1802E00C1802E00C1802E00C1AC
:10188000012E5DF708BC80AC0EBB022F0030410476
:101890008206C0A40030112F40A9032F40910D2FC4
:1018A00000A70B2F80B3B358022F90A1261320233B
:1018B00080901030012FCC0E002F0030B82EB55084
:1018C000180808BC88B60D17C6BD56BCB758DABA9A
:1018D00004011D0A1050053032254503FB7FF63008
:1018E0002125982E37CA16B59ABC06B880A8410A99
:1018F0000E2F8090022F2D50480F092FBFA0042FCC
:10190000BF90062FB754CA0F032F002E022CB752D8
:101910002D52F233982ED9C0FB6FF137C02E01083B
:10192000F05FBF56B954D040C4400B2EFDF3BF52F8
:101930009042944295420530C1500F8806400441C0
:101940009642C54248BE73300D2ED8004FBA84422D
:10195000034281B3022F2B2E6FF5062D052E77F74C
:10196000BD569308252E77F7BB54252EC2F5072EBA
:10197000FDF34230B433DA0A4C00272EFDF3434026
:10198000D43FDC084342002E002E43402430DC0AC2
:1019900043420480032EFDF34A0A232EFDF36134F3
:1019A000C02E0142002E60501A257A86E07FF37F18
:1019B0000325C3524184DB7F3330982E16C21A258B
:1019C0007D82F06FE26F32251640944026018540FB
:1019D0008E17C4426E039542410EF42FDB6FA05F59
:1019E000B82EB051FB7F982EE80D5A25982E0F0E79
:1019F000CB583287C47F65896B8DC55A657FE17F7F
:101A0000837FA67F747FD07FB67F947F1730C752C5
:101A1000C954517F002E856F427F002E5141458170
:101A2000424113403B8A00404B04D006C0AC857F46
:101A3000022F02305104D306418405305D02C916DD
:101A4000DF08D3008D02AFBCB1B9590A656F1143ED
:101A5000A1B4524153410143347F657F2631E56F84
:101A6000D46F982E37CA326F756F83404241237FFF
:101A7000127FF63040255125982E37CA146F200565
:101A8000706F256F6907A26F316F0B3004429B4264
:101A90008B425542327F40A9C36F717F0230D040E4
:101AA000C37F032F4091152F00A7132F00A4112FE0
:101AB00084BD982E79CA556FB75454418200F33FC4
:101AC0004541CB02F630982E37CA356FA46F41439B
:101AD000032C0043A46F356F1730426F516F934052
:101AE00042820041C3000343517F002E9440414194
:101AF0004C02C46FD156630E746F5143A57F8A2F79
:101B0000092ED80001B3212FCB58906F1341B66F27
:101B1000E47F002E9141144092411540172E6FF53D
:101B2000B67FD07FCB7F982E000C0715C26F140BA9
:101B3000292E6FF5C3A3C18FE46FD06FE62F143049
:101B4000052E6FF5140B292E6FF5182DCD56043286
:101B5000B56F1C0151415241C340B57FE47F982EBF
:101B60001F0CE46F218700430432CF545A0EEF2F2D
:101B70001554092E77F7220B292E77F7FB6F505E4D
:101B8000B82E1050012ED40000B2FB7F512F01B2AD
:101B9000482F02B2422F0390562FD75279804240ED
:101BA000818400404242982E930CD954D750A140D2
:101BB00098BD82403E82DA0A44408B16E3005342CD
:101BC000002E43409A025242002E414015544A0EC4
:101BD0003A2F3A8200304140212E850F40B20A2F21
:101BE000982EB10C982E450E982E5B0EFB6FF05F71
:101BF0000030802ECEB7DD52D35442424F84733032
:101C0000DB5283421B306B422330272ED700372E06
:101C1000D400212ED6007A84172C42423030212E57
:101C2000D400122D21300030232ED400212E7BF73A
:101C30000B2D1730982E510CD5500C8272302F2E50
:101C4000D400252E7BF74042002EFB6FF05FB82EAC
:101C500070500A253986FB7FE1326230982EC2C46B
:101C6000B556A56FAB08916F4B08DF56C46F2309BB
:101C70004DBA93BC8C0BD16F0B09CB52E15E56422F
:101C8000AF094DBA23BD940AE56F68BBEB08BDB937
:101C900063BEFB6F5242E30AC02E4342905FD150B5
:101CA000032E25F3134000409BBC9BB408BDB8B97C
:101CB00098BCDA0A08B68916C02E190062021050C4
:101CC000FB7F982E810D012ED40031300804FB6F6C
:101CD0000130F05F232ED600212ED700B82E012E22
:101CE000D700032ED600480E012F802E1F0EB82ECF
:101CF000E350213401428230C132252E62F50100C9
:101D0000223001404A0A0142B82EE354F03B83409E
:101D1000D808E5528342003083305042C432272E27
:101D200064F5940050424042D33F84407D82E308F2
:101D300040428342B82EDD52003040427C86B95288
:101D4000092E700FBF54C442D3865440554094426C
:101D50008542212ED7004240252EFDF3C0427E82CF
:101D6000052E7D0080B2142F052E890027BD2FB9C6
:101D70008090022F212E6FF50C2D072E710F14303D
:101D80001C09052E77F7BD5647BE9308940A252EE9
:101D900077F7E75450424A0EFC2FB82E50500230CD
:101DA0004386E550FB7FE37FD27FC07FB17F002E6B
:101DB000414000404804982E74C01EAAD36F1430CE
:101DC000B16FE322C06F5240E46F4C0E1242D37FDA
:101DD000EB2F032E860F40901130032F232E860FFA
:101DE000022C0030D06FFB6FB05FB82E4050F17FF7
:101DF0000A253C86EB7F41332230982EC2C4D36F34
:101E0000F430DC094758C26F9409EB586ABBDC0810
:101E1000B4B9B1BDE95A950821BDF6BF770B51BEE3
:101E2000F16FEB6F52425442C02E4342C05F50509C
:101E3000F55031301142FB7F7B300B421130028074
:101E4000233301420300072E8003052ED3002352C3
:101E5000E27FD37FC07F982EB60ED16F080A1A2575
:101E60007B86D07F01331230982EC2C4D16F080A0E
:101E700000B20D2FE36F012E80035130C786232E51
:101E800021F208BCC042982EA5B7002E002ED02EFD
:101E9000B06F0BB8032E1B00081AB07F7030042FF0
:101EA000212E21F2002E002ED02E982E6DC0982EBD
:101EB0005DC0ED50982E44CBEF50982E46C3F150A4
:101EC000982E53C73550982E64CF1030982EDC03CF
:101ED0002026C06F02311242AB330B4237800130F3
:101EE0000142F337F752FB504440A20A42428B3181
:101EF000092E5EF7F954E30883421B4223334B005B
:101F0000BC840B40333083420B42E07FD17F982E5C
:101F100058B7D16F803040420330E06FF354043043
:101F2000002E002E0189620EFA2F43421130FB6F02
:101F3000C02E0142B05FC14A00006D570000778E8D
:101F40000000E0FFFFFFD3FFFFFFE5FFFFFFEEE133
:101F5000FFFF7C13000046E6FFFF000000000000CA
:101F60000000000000000000000000000000000071
:101F70000000000000000000000000000000000061
:101F80000000000000000000000000000000000051
:101F900000000000802E00C1802E00C1802E00C1F4
:101FA000802E00C1802E00C1802E00C1802E00C175
:101FB000802E00C1802E00C1802E00C1802E00C165
:101FC000802E00C1802E00C1802E00C1802E00C155
:101FD000802E00C1802E00C1802E00C1802E00C145
:101FE000802E00C1802E00C1802E00C1802E00C135
:101FF000802E00C1802E00C1802E00C1802E00C125
:10200000802E00C1802E00C1802E00C1802E00C114
:10201000802E00C1802E00C1802E00C1802E00C104
:10202000802E00C1802E00C1802E00C1802E00C1F4
:10203000802E00C1802E00C1802E00C1802E00C1E4
:10204000802E00C1802E00C1802E00C1802E00C1D4
:10205000802E00C1802E00C1802E00C1802E00C1C4
:10206000802E00C1802E00C1802E00C1802E00C1B4
:10207000802E00C1802E00C1802E00C1802E00C1A4
:1020800080B5012301220021582001F0AEFF012379
:1020900001220021B02001F0A8FF0123012200212C
:1020A000BB2001F0A2FF012301220021BC2001F08E
:1020B0009CFF01BD2DE9FC47DFF8109B99F800005B
:1020C000002836D0582001F058FF04002000C0B28C
:1020D000002806D1DFF8F80A0078012801D1012094
:1020E00000E00020C0B200281ED0002089F80000C7
:1020F0000020DFF8E01A08700020DFF8DC1A087012
:102100000120DFF8D81A08700020DFF8D41A087010
:1021100002F0A8F8DFF8CC2A2821002002F03CFACF
:102120004FF47A7002F0C0FEDFF8A40A047000F0E9
:10213000D0BF582001F021FF8DF800006C46B02080
:1021400001F01BFF6070BB2001F017FFA070BC20E6
:1021500001F013FFE070002017E00021DFF8882A6B
:10216000115411E0DFF8841A225C0B5C9A42F4D01F
:10217000DFF8742A135C5B1C1354135C032B03DB22
:10218000235C0B5400211154401C0428EADBDFF8C7
:102190005C4A2078002807D1DFF8540A007801282B
:1021A00002D15FF0010A01E05FF0000A60780028C8
:1021B00006D1DFF83C0A4078012801D1012500E072
:1021C0000025A078002806D1DFF8240A80780128AD
:1021D00001D1012600E00026E078002806D1DFF8D2
:1021E000100AC078012801D1012700E00027DFF89C
:1021F000E48998F8000000281CD0012800F0C28073
:10220000022800F02481032800F01882042800F03E
:102210001383052800F0FE83072800F0FF840828B8
:1022200000F05F86092800F0F8850A2800F035875D
:1022300000F046BF5FFA8AFABAF1000F02D1EDB2A0
:10224000002D0DD0DFF890090178491C042291FB84
:10225000F2F302FB131101700120DFF880190870FE
:10226000FFB2002F00F08C80DFF86C59287800282E
:1022700054D1DFF86C693078002827D10120307004
:10228000DFF81C2C5A21002002F086F9DFF8142C0C
:102290006A21002002F080F90223022215001E00AC
:1022A000DFF8040C006802F089FE41EC100B3300EB
:1022B0002A005021642002F035FA4FF47A7002F0BF
:1022C000F3FD0120DFF81419087059E001F0CAFF8E
:1022D00001F0C8FFC2A23221282002F05DF94FF4BC
:1022E000FA7002F0E1FD02F0C1FF012089F8000060
:1022F00000203070062088F800000020287001209F
:10230000DFF8D81808700020042839DA0121215498
:102310000121DFF8DC281154401CF5E7287801285A
:1023200009D1012088F80000002028700120DFF882
:10233000AC18087024E02878022811D1072088F80A
:102340000000002028700020DFF8601B08700120CA
:10235000DFF85C1B08700120DFF8801808700FE0C0
:10236000287803280CD10120DFF8481B08700A20C8
:1023700088F80000002028700120DFF8601808703D
:1023800000F09EBE5FFA8AFABAF1000F0ED0DFF8B5
:1023900048180878002802D10420087002E0087864
:1023A000401E08700120DFF834180870EDB2002DCF
:1023B0000DD0DFF824080178491C052291FBF2F3C7
:1023C00002FB131101700120DFF810180870FFB232
:1023D000002F28D0DFF800080178002906D0022954
:1023E0000CD007D3042911D00CD312E0022188F8B5
:1023F00000100EE0032188F800100AE0042188F89C
:10240000001006E0052188F8001002E0002188F89D
:102410000010002101700020DFF89C1A08700120D4
:10242000DFF8B8170870F6B2002E0ED0002088F83A
:1024300000000020DFF8A01708700020DFF8781AED
:1024400008700120DFF89417087000F039BEDFF83B
:10245000689A99F80000002859D15FFA8AFABAF10F
:10246000000F0ED0DFF870170878002802D1042082
:10247000087002E00878401E08700120DFF85C1741
:102480000870EDB2002D0DD0DFF84C070178491C23
:10249000052291FBF2F302FB131101700120DFF81A
:1024A0003C170870FFB2002F1ED0DFF82C07017810
:1024B00004290CD1012188F80010002101700020AE
:1024C00089F800000120DFF8141708700CE000788C
:1024D000032802D101F006FC06E0012089F8000083
:1024E0000120DFF8F8160870F6B2002E00F0A48084
:1024F000012088F800000020DFF8DC1608700020BA
:1025000089F800000120DFF8D416087094E05FFA23
:102510008AFABAF1000F2CD0DFF8BC060078002848
:1025200003D0022817D00BD31FE0DFF8AC0B90EDDF
:10253000000ADFEDA70A30EE200A80ED000A14E061
:10254000DFF8980B90ED000AF1EE040A30EE200A55
:1025500080ED000A09E0DFF8880B90ED000ADFED5E
:102560009C0A30EE200A80ED000A0120DFF86C168C
:102570000870EDB2002D52D0DFF85C06007800281C
:1025800003D0022831D017D345E0DFF84C0B90ED93
:10259000000ADFED900AB4EE600AF1EE10FA08DBF3
:1025A00090ED000ADFED8C0A30EE200A80ED000A83
:1025B00001E0002101602EE0DFF8200B90ED000A21
:1025C000DFED860AB4EE600AF1EE10FA0ADB90ED58
:1025D000000AF9EE040A30EE200A80ED000A03E05A
:1025E000474F21000021016015E0DFF8F40A90ED6B
:1025F000000ADFED780AB4EE600AF1EE10FA08DBAB
:1026000090ED000ADFED740A30EE200A80ED000A3A
:1026100001E0002101600120DFF8C0150870F6B26A
:10262000002E02D1FFB2002F06D0002089F8000052
:102630000120DFF8A815087000F042BDDFF8789897
:1026400099F80000002859D15FFA8AFABAF1000F10
:102650000ED0DFF884150878002802D10420087015
:1026600002E00878401E08700120DFF8701508703D
:10267000EDB2002D0DD0DFF860050178491C052270
:1026800091FBF2F302FB131101700120DFF84C15EE
:102690000870FFB2002F1ED0DFF83C050178042936
:1026A0000CD1012188F8001001210170002089F867
:1026B00000000120DFF8241508700CE000780328E2
:1026C00002D101F00FFB06E0012089F80000012093
:1026D000DFF808150870F6B2002E00F0AB8001207C
:1026E00088F800000120DFF8F0140870002089F855
:1026F00000000120DFF8E41408709BE05FFA8AFA1A
:10270000BAF1000F2CD0DFF8D0040078002803D0F5
:10271000022817D00BD31FE0DFF8C80990ED000A9C
:10272000DFED2B0A30EE200A80ED000A14E0DFF81E
:10273000B80990ED000ADFED260A30EE200A80EDA0
:10274000000A09E0DFF8A40990ED000ADFED200A95
:1027500030EE200A80ED000A0120DFF880140870B6
:10276000EDB2002D59D0DFF870040078002803D0B6
:10277000022838D017D34CE0DFF8680990ED000A42
:10278000DFED140AB4EE600AF1EE10FA08DB90ED0A
:10279000000ADFED110A30EE200A80ED000A01E0A8
:1027A0000021016035E0DFF8400990ED000ADFED1F
:1027B000090AB4EE600AF1EE10FA11DB90ED000A9E
:1027C000DFED050A30EE200A80ED000A0AE000BFC6
:1027D0000AD7233C0BD7233C0AD723BC0100A040D7
:1027E0000021016015E0DFF8040990ED000ADFED3B
:1027F000920AB4EE600AF1EE10FA08DB90ED000ADE
:10280000DFED8E0A30EE200A80ED000A01E00021A3
:1028100001600120DFF8C4130870F6B2002E02D167
:10282000FFB2002F06D0002089F800000120DFF859
:10283000AC13087000F044BCDFF87C9699F80000F7
:10284000002858D15FFA8AFABAF1000F0ED0DFF8EB
:1028500088130878002802D10420087002E0087864
:10286000401E08700120DFF874130870EDB2002DCF
:102870000DD0DFF864030178491C052291FBF2F3C7
:1028800002FB131101700120DFF850130870FFB232
:10289000002F1ED0DFF84003017804290CD101215C
:1028A00088F8001002210170002089F80000012042
:1028B000DFF8281308700CE00078032802D101F03B
:1028C00011FA06E0012089F800000120DFF80C135E
:1028D0000870F6B2002E00F09C80012088F80000FD
:1028E0000220DFF8F4120870002089F800000120AF
:1028F000BA4908708DE05FFA8AFABAF1000F2AD05F
:10290000B5480078002803D0022817D00BD31FE069
:10291000DFF8DC0790ED000AF1EE040A30EE200A41
:1029200080ED000A14E0DFF8CC0790ED000ADFED3F
:10293000A20A30EE200A80ED000A09E0DFF8B807AD
:1029400090ED000ADFED9D0A30EE200A80ED000ACE
:102950000120A2490870EDB2002D4ED09E480078AB
:10296000002803D002282FD017D343E0DFF88007D8
:1029700090ED000ADFED920AB4EE600AF1EE10FA73
:1029800008DB90ED000AF9EE040A30EE200A80ED33
:10299000000A01E0002101602CE0DFF8580790ED0B
:1029A000000ADFED250AB4EE600AF1EE10FA08DB4A
:1029B00090ED000ADFED210A30EE200A80ED000ADA
:1029C00001E00021016015E0DFF82C0790ED000A1E
:1029D000DFED7C0AB4EE600AF1EE10FA08DB90ED50
:1029E000000ADFED790A30EE200A80ED000A01E0EE
:1029F00000210160012079490870F6B2002E02D151
:102A0000FFB2002F05D0002089F800000120734993
:102A1000087055E3DFF8A09499F80000002854D11D
:102A20005FFA8AFABAF1000F10D06B4908780028D3
:102A300006D10620087006E00BD7233C0AD723BC3A
:102A40000878401E0870012064490870EDB2002D1E
:102A50000BD061480178491C072291FBF2F302FB7D
:102A60001311017001205D490870FFB2002F1BD0C7
:102A70005948017806290BD1012188F8001003215B
:102A80000170002089F800000120544908700BE013
:102A90000078052802D101F025F905E0012089F828
:102AA000000001204D490870F6B2002E00F0B580FC
:102AB000012088F80000032047490870002089F8A9
:102AC0000000012045490870A7E05FFA8AFABAF1D0
:102AD000000F2AD040480078002806D0022810D0E5
:102AE00009D3042819D012D31CE0DFF8100601889E
:102AF000491C018016E0DFF808060188491C0180A6
:102B000010E0DFF800060188491C01800AE0DFF8C8
:102B1000F8050188491C018004E0DFF8F005018810
:102B2000491C018001202D490870EDB2002D67D0AD
:102B300029480078002806D002281CD00FD304288A
:102B400031D024D358E0DFF8B4050188022903DB33
:102B50000188491E018001E0002101804CE0DFF87E
:102B6000A0050188022903DB0188491E018001E0DC
:102B70000021018040E0DFF88C050188022903DB99
:102B80000188491E018001E00021018034E0DFF866
:102B900078050188022903DB0188491E018001E0D4
:102BA0000021018028E0DFF864050188022921DB8B
:102BB0000188491E01801FE00AD7233CCDCCCC3DC3
:102BC0000100A040CECCCC3DCDCCCCBDD31B030866
:102BD000C8650208D11B0308D21B0308C66502089A
:102BE000D61B030834280910181B030808650208BF
:102BF0000C650208002101800120DFF8141508701F
:102C0000F6B2002E02D1FFB2002F06D0002089F8C4
:102C100000000120DFF8F814087051E2F6B2002E2F
:102C200020D0A248017801290CD100210170A048D0
:102C30000078401EDFF8DC1408700120DFF8D014A3
:102C400008700FE0002188F800100221DFF8C4248A
:102C500011700121DFF8B8241170002101700120EA
:102C6000934908709149087800284ED15046C0B267
:102C7000002802D1EDB2002D1FD05FFA8AFABAF116
:102C8000000F0BD0DFF88C241078002802D104202C
:102C900010700EE01078401E10700AE0DFF8740427
:102CA0000278042A02D10022027002E00278521C4B
:102CB00002700120DFF858241070FFB2002F00F0DE
:102CC000AB80DFF850040278042A11D1092188F87A
:102CD0000010002101700020DFF83C140870002073
:102CE000DFF8381408700120DFF82414087093E02E
:102CF0000278521C6E4B1A7001220A70002101707A
:102D00000120DFF80C14087086E05046C0B200289D
:102D100002D1EDB2002D1FD05FFA8AFABAF1000F8E
:102D20000BD0DFF8F0231078002802D105201070B6
:102D30000EE01078401E10700AE0DFF8D803027829
:102D4000052A02D10022027002E00278521C0270B1
:102D50000120DFF8BC231070FFB2002F5CD0DFF839
:102D6000B4532878002808D0022821D013D304288F
:102D700039D02AD3052846D04EE0082088F8000034
:102D80004B48007802F0D7FE002028700120DFF8C1
:102D90008013087040E04648007802F0B1FF4FF41D
:102DA000FA6002F081F80120DFF86413087033E064
:102DB0003F48007802F049FF4FF47A7002F074F84F
:102DC0000120DFF84C13087026E03948007802F043
:102DD0002CFF082088F80000002028700120DFF870
:102DE0003013087018E03248007802F0A4FE02F0B8
:102DF000E7FD082088F80000002028700120DFF897
:102E00001013087008E00020087029480078401E60
:102E100028700120BE49087052E1F6B2002E0BD096
:102E2000072088F800000020204908700420B949D4
:102E300008700120B64908705046C0B2002802D17F
:102E4000EDB2002D1CD05FFA8AFABAF1000F0AD059
:102E5000B0490878002802D1032008700DE00878F6
:102E6000401E087009E0AB480178032902D1002117
:102E7000017002E00178491C01700120A44908702A
:102E8000FFB2002F2CD0A64DA2480178294491F81A
:102E900051130A00D2B2042A10D101210FE000BF61
:102EA0007C25091040280910FC1A0308D71B0308C9
:102EB000C7650208D51B0308D41B0308491C00780A
:102EC000284480F8511395F8543395F8532395F816
:102ED000521395F8510302F055FE01208C490870F9
:102EE000EEE0F6B2002E59D08E480178012949D182
:102EF0000021017000214170002181700021C1700A
:102F00000021017103F070F9854991F85003002800
:102F10000FD091F85023D420424301EB0200CC386B
:102F2000814991ED000AF0EE000A20EE200A80EDC2
:102F3000000A02F062FB02F071FB80207B4908600E
:102F400001F090F97A4A2821002001F025FB794A06
:102F50003C21002001F020FB774A5021002001F0A5
:102F60001BFB40F2DC5001F09FFF072088F80000B7
:102F700001207249087000206649087001206449E8
:102F800008700BE0072088F8000001206B490870EA
:102F900000206049087001205D490870FFB2002FD1
:102FA0005ED099F80000002805D198F800000828A4
:102FB00001D1012000E00020C0B200281ED05948F5
:102FC000007800281AD102F0FBFC01F04BF95C4AB2
:102FD0002821002001F0E0FA5A4A3C21002001F0AB
:102FE000DBFA594A5021002001F0D6FA40F2DC50B9
:102FF00001F05AFF01204649087031E0494E30780F
:10300000012821D101F02EF9F07801280AD14F4A88
:103010002821002001F0C0FA4D4A3C21002001F097
:10302000BBFA04E04B4A2821002001F0B5FA4A4AD5
:103030005021002001F0B0FA40F2DC5001F034FFE2
:103040000120334908700BE0072088F800000120B8
:103050003A49087004202F49087001202C49087053
:103060005FFA8AFABAF1000F08D02E4800780028DB
:1030700004D102F0E4FA012025490870EDB2002DD8
:103080000AD028480078002806D102F0D8FA02F0C9
:10309000F3FA01201E49087012E0F6B2002E02D1A8
:1030A000FFB2002F0BD000202C490870002088F8B8
:1030B0000000032017490870012015490870FFE738
:1030C000002004E0215CDFF83C2C1154401C042853
:1030D000F8DBBDE8F3870000F06402080C1B03086E
:1030E000F4640208F8640208101B0308FC64020878
:1030F0000065020804650208141B0308B265020893
:10310000B4650208B6650208B8650208BA65020827
:10311000C6650208D21B0308D81B0308D91B030885
:10312000980E0308CC160308201B0308840B3140BB
:1031300090250910882609104C280910D71B030870
:10314000A4250910B8250910CC250910A8240910B8
:10315000C0240910E0250910D8240910D51B030844
:10316000F8B588B0DFF8A81B0A78DFF8A84B2078FC
:10317000082819D1DFF8A03B187800280AD0DFF81A
:103180009C0B0078DFF8985B2D78A84202D1087874
:1031900000280DD00122DFF8840B0078DFF8805B77
:1031A00028700120187003E00020DFF86C3B1870D5
:1031B000D2B2002A00F08D85002008702078002807
:1031C0001BD0012874D0022800F0BA80032800F038
:1031D0005E81042800F00182052800F0A6820728FD
:1031E00000F06C83082800F0E084092800F0678470
:1031F0000A2800F0648500F065BD01F033F8DFF8BF
:10320000282B0021002001F0C7F9DFF8202B142122
:10321000002001F0C1F9DFF8184B2078002802D116
:10322000DFF8102B01E0DFF8102B2321002001F044
:10323000B3F92078012802D1DFF8002B01E0DFF894
:10324000002B3221002001F0A7F92078022802D1BA
:10325000DFF8F02A01E0DFF8F02A4121002001F038
:103260009BF92078032802D1DFF8E02A01E0DFF89B
:10327000F42A5021002001F08FF9DFF8EC2A6E21AA
:10328000002001F089F90123DFF8E00A02786E21BD
:10329000322001F0D7F9DFF8D80A0078002805D0ED
:1032A000DFF8D02A6E21462001F076F900F011BD3A
:1032B00000F0D8FFDFF8C02A0021002001F06CF9EF
:1032C000DFF86C4A2078002802D1DFF8B02A01E04C
:1032D000DFF8AC2A0F21002001F05EF920780128E8
:1032E00002D1DFF8A02A01E0DFF89C2A1E2100208D
:1032F00001F052F92078022802D1DFF8902A01E08B
:10330000DFF88C2A2D21002001F046F920780328CF
:1033100002D1DFF8C82901E0DFF8C4293C210020F0
:1033200001F03AF92078042802D1DFF86C2A01E094
:10333000DFF8682A4B21002001F02EF900F0C9BC0B
:1033400000F090FFDFF8082A0021002001F024F9A6
:10335000DFF8005A2878002805D0DFF8442A102129
:10336000002001F019F9DFF8C8492078002802D1BF
:10337000DFF8E42901E0DFF8E4292021002001F052
:103380000BF90323022216001F00DFF8D40900689E
:1033900001F014FE41EC100B3B00320020212820EC
:1033A00001F0C0F92878002807D02078002804D13F
:1033B000BFA22021642001F0EFF82078012802D17B
:1033C000DFF8E02901E0DFF8E0293021002001F0FA
:1033D000E3F80323022216001F00DFF8D00900687B
:1033E00001F0ECFD41EC100B3B00320030212820B5
:1033F00001F098F92878002807D02078012804D116
:10340000ABA23021642001F0C7F82078022802D155
:10341000DFF89C2901E0DFF89C294021002001F021
:10342000BBF80323022216001F00DFF88C09006896
:1034300001F0C4FD41EC100B3B003200402128207C
:1034400001F070F92878002807D02078022804D1EC
:1034500097A24021642001F09FF82078032802D130
:10346000DFF8582901E0DFF858295021002001F049
:1034700093F82078042802D1DFF81C2901E0DFF856
:103480001C296021002001F087F800F022BC00F028
:10349000E9FEDFF830290021002001F07DF8DFF897
:1034A000B4582878002805D0DFF8F428102100202F
:1034B00001F072F8DFF878482078002802D1DFF8B0
:1034C000982801E0DFF894282021002001F064F81A
:1034D0000323022216001F00DFF8EC08006801F049
:1034E0006DFD41EC100B3B0032002021282001F043
:1034F00019F92878002807D02078002804D16CA278
:103500002021642001F048F82078012802D1DFF85A
:10351000942801E0DFF890283021002001F03CF8E9
:103520000323022216001F00DFF8A008006801F044
:1035300045FD41EC100B3B0032003021282001F00A
:10354000F1F82878002807D02078012804D158A263
:103550003021642001F020F82078022802D1DFF821
:10356000502801E0DFF84C284021002001F014F839
:103570000323022216001F00DFF85408006801F040
:103580001DFD41EC100B3B0032004021282001F0D2
:10359000C9F82878002807D02078022804D144A24E
:1035A0004021642000F0F8FF2078032802D1DFF8E2
:1035B0000C2801E0DFF808285021002000F0ECFF83
:1035C0002078042802D1DFF8D02701E0DFF8CC27EB
:1035D0006021002000F0E0FF7BE300F043FEDFF815
:1035E000F4270021002000F0D7FFDFF86857287883
:1035F000002805D0DFF8A8271021002000F0CCFF1C
:10360000DFF82C472078002802D1DFF84C2701E0B2
:10361000DFF848272021002000F0BEFF032302220C
:1036200016001F00DFF8B007006801F0C7FC41EC8E
:10363000100B3B0032002021282001F073F828787D
:10364000002807D02078002804D119A22021642066
:1036500000F0A2FF2078012802D1DFF8482701E01E
:10366000DFF844273021002000F096FF03230222D8
:1036700016001F00DFF86407006801F09FFC41ECB2
:10368000100B3B0032003021282001F04BF8287845
:10369000002807D02078012804D105A23021642019
:1036A00000F07AFF2078022804D1DFF8042703E035
:1036B0003C2D0000DFF8FC264021002000F06CFFCC
:1036C0000323022216001F00DFF81407006801F030
:1036D00075FC41EC100B3B0032004021282001F02A
:1036E00021F82878002807D02078022804D1B8A231
:1036F0004021642000F050FF2078032802D1DFF839
:10370000BC2601E0DFF8B8265021002000F044FF7D
:103710002078042802D1DFF8802601E0DFF87C263B
:103720006021002000F038FFD3E200F09BFDDFF8BD
:10373000B4260021002000F02FFFDFF8185628786B
:10374000002805D0DFF858261021002000F024FFC3
:10375000DFF8DC452078002802D1DFF88C2601E074
:10376000DFF888262021002000F016FF0423DFF870
:103770008006028820214B2000F064FF2878002872
:1037800007D02078002804D191A22021642000F0E5
:1037900003FF2078012802D1DFF8582601E0DFF886
:1037A00058263021002000F0F7FE0423DFF84C06F5
:1037B000028830214B2000F045FF2878002807D0F0
:1037C0002078012804D182A230216E2000F0E4FE8E
:1037D0002078022802D1DFF8282601E0DFF824262D
:1037E0004021002000F0D8FE0423DFF81C060288E8
:1037F00040214B2000F026FF2878002807D02078B1
:10380000022804D172A240215A2000F0C5FE20787F
:10381000032802D1DFF8F42501E0DFF8F425502178
:10382000002000F0B9FE0423DFF8E80502885021EB
:103830004B2000F007FF2878002807D020780328C5
:1038400004D163A250215F2000F0A6FE2078042856
:1038500002D1DFF8C42501E0DFF8C0256021002097
:1038600000F09AFE0423DFF8B805028860214B209F
:1038700000F0E8FE2878002807D02078042804D13A
:1038800053A260215A2000F087FE2078052802D13B
:10389000DFF8282501E0DFF828257021002000F05E
:1038A0007BFE2078062802D1DFF8EC2401E0DFF867
:1038B000EC2470213C2000F06FFE0AE200F0D2FC04
:1038C000DFF860050078002840F08480DFF8582594
:1038D0000021002000F060FEDFF8502514210020B8
:1038E00000F05AFEDFF848442078002802D1DFF8C3
:1038F000402501E0DFF83C252321002000F04CFEAC
:10390000012002F047FA002801D0B6A200E0B6A2DA
:103910002321282000F040FE2078012802D1DFF882
:10392000182501E0DFF814253221002000F034FED4
:10393000022002F02FFA002801D0AAA200E0AAA2D9
:103940003221282000F028FE2078022802D1DFF85A
:10395000F02401E0DFF8EC244121002000F01CFEFF
:10396000032002F017FA002801D09EA200E09EA2D8
:103970004121282000F010FE2078032802D1DFF832
:10398000C82401E0DFF8C4245021002000F004FE28
:10399000042002F0FFF9002801D092A200E092A2D8
:1039A0005021282000F0F8FD2078042802D1DFF80B
:1039B000A02401E0DFF89C245F21002000F0ECFD52
:1039C000DFF894247021002000F0E6FD76E000BFCF
:1039D0003C2D0000C0A20021002000F0DDFDDFF83A
:1039E0007C440123227800210A2000F02BFEDFF81E
:1039F00070240021142000F0CFFDDFF8682414218A
:103A0000002000F0C9FDCA4D2878002802D1DFF857
:103A1000582401E0DFF854242321002000F0BCFDED
:103A20002878012802D1DFF8482401E0DFF8442497
:103A30003221002000F0B0FD2878022802D1DFF802
:103A4000382401E0DFF834244121002000F0A4FDF7
:103A50002878032802D1DFF8282401E0DFF82424A5
:103A60005021002000F098FD2878042802D1DFF8CA
:103A7000182401E0DFF814245F21002000F08CFD01
:103A80002878052802D1DFF8082401E0DFF80424B3
:103A90006E21002000F080FDDFF8FC2323215A2056
:103AA00000F07AFD207802F075F9002801D096A286
:103AB00000E096A22321732000F06EFD09E100F0E2
:103AC000D1FBDFF8D8230021002000F065FDDFF8EE
:103AD000D0231421002000F05FFD954C20780028B1
:103AE00002D1DFF8C02301E0DFF8BC23232100204E
:103AF00000F052FDDFF8B453012395F85123232140
:103B0000412000F09FFD2078012802D1DFF8A0239A
:103B100001E0DFF8A0233221002000F03DFD012369
:103B200095F852233221412000F08CFD20780228A4
:103B300002D1DFF8842301E0DFF880234121002057
:103B400000F02AFD012395F853234121412000F084
:103B500079FD2078032802D1DFF8642301E0DFF843
:103B600064235021002000F017FD012395F8542311
:103B70005021412000F066FDDFF84C236421002035
:103B800000F00AFD67A27321002000F005FD01236B
:103B900095F856237321142000F054FDDFF82C23F0
:103BA00073211E2000F0F8FC93E000F05BFBBF4D9A
:103BB00095F85023C649684602F02EFB6A4600215C
:103BC000002000F0E9FCC34A1421002000F0E4FCCE
:103BD00066480078002809D12078082806D10124F9
:103BE00005E000BF5B2A5D005B205D0000244B48C0
:103BF000007801281ED12000C0B200281AD0B64A91
:103C00002821002000F0C8FCB44A3C21002000F02C
:103C1000C3FC0123032214001D00B148006801F019
:103C2000CDF941EC100B2B0022003C213C2000F090
:103C300079FD43E02000C0B2002805D1A94A28211F
:103C4000002000F0A9FC04E0A34A2821002000F095
:103C5000A3FC95F85003002828D095F85013D420E1
:103C6000414305EB0100B0F1D405A879002814D038
:103C70009D4A5021002000F08FFC012303221400F4
:103C80001E00A86801F09AF941EC100B33002200E5
:103C90005021502000F046FD10E0E4B2002C0DD081
:103CA000924A5021002000F077FC07E0E4B2002C9B
:103CB00004D038A25021002000F06EFC09E000F092
:103CC000D1FA06E000F0CEFA894A0021002000F087
:103CD00063FC09B0F0BD0000420000000827091095
:103CE0001827091080B5012082490870824A5021A6
:103CF000002000F051FC642001F0D6F801200449B6
:103D0000087001BD0C650208590000004E0000005B
:103D1000C6650208D11B0308DA1B0308CC1603088A
:103D2000C9650208456E3A00F425091008260910F5
:103D3000D21B030858280910642809109826091076
:103D4000A8260910B8260910C8260910D826091077
:103D500028270910D41B0308E42A0910EC2A0910AB
:103D6000F0640208E8260910C42A0910D31B0308CE
:103D7000D61B0308CC2A0910F82609107028091050
:103D80007C2809108828091094280910A0280910F7
:103D9000AC2809104E6F0000D42A0910DC2A091043
:103DA000B8280910F42A0910FC2A09100C1B030872
:103DB000042B09100C2B0910F4640208142B0910B1
:103DC0001C2B091038270910F8640208101B03087F
:103DD000FC6402084827091000650208046502080F
:103DE000141B030858270910C4280910D0280910EB
:103DF000B2650208242B09102C2B0910B4650208A7
:103E0000DC280910E8280910B6650208F428091012
:103E100000290910B86502080C2909101829091091
:103E2000BA650208D71B0308242909103029091094
:103E3000342B09103C2B0910442B09104C2B091072
:103E4000542B09105C2B0910642B09106C2B0910E2
:103E50003C290910482909101C260910C7650208C9
:103E60005429091068270910602909106C290910C4
:103E7000742B09107C2B0910842B09108C2B091032
:103E80007829091084290910902909109C29091002
:103E9000942B09109C2B0910A42B091078270910CA
:103EA00088270910A8290910B4290910980E0308B9
:103EB000C0290910CC290910D8290910E4290910B2
:103EC000F0290910FC290910F0240910AC2B091065
:103ED0009827091030260910082A0910142A0910F9
:103EE000201B0308202A09102C2A0910382A09103F
:103EF000A8270910DC1B0308442A09100069C840E0
:103F000010F001007047012212FA01F18160704740
:103F1000012212FA01F14160704710B48900436C2C
:103F20000F248C40A34312F00F0212FA01F119433F
:103F3000416410BC704780B5C9B200290ED00100A1
:103F4000C9B2082291FBF2F302FB1311494AC0B235
:103F5000C010C0011044FFF7D6FF0DE00100C9B248
:103F6000082291FBF2F302FB1311424AC0B2C010C7
:103F7000C0011044FFF7CCFF01BD80B50100C9B2FC
:103F8000082291FBF2F302FB13113A4AC0B2C010AF
:103F9000C0011044FFF7B2FFC0B202BD10B549B274
:103FA00000290BD152B2002A02D0022A02D003E02B
:103FB0000F220BE00B2209E00A2207E052B2042A8A
:103FC00001D10C2200E00E2212F007020100C9B25A
:103FD000082391FBF3F403FB1411264BC0B2C0106D
:103FE000C0011844FFF799FF10BD2DE9F8418DB0CD
:103FF00004000E0015001F0034210022E846404650
:1040000002F02AF976B2002E0ED17FB2002F02D034
:10401000022F03D005E00F2001900DE00820019051
:104020000AE00820019007E07FB2042F02D10F20A0
:10403000019001E00E2001902000C0B2C0280FD0F6
:104040002100C9B208206A4691FBF0F300FB13116E
:1040500008482300DBB2DB10DB01184402F0F9F959
:104060002900C9B22000C0B2FFF765FF0EB0BDE85D
:10407000F08100000000314080B501000220DFF82F
:10408000FC271060C9B2022002F077FC0220DFF8A2
:10409000FC17086001BD2DE9F047060015001F0060
:1040A000DFF8DC873000B8F8002080B2904201D2FF
:1040B000012000E000200C00DFF8C897AF2249463D
:1040C000C0B203F0B6F9DFF8C0A72000BAF80010BC
:1040D00080B2884201D2012000E00020B02249468F
:1040E000C0B203F0A6F92800B8F8001080B28842E8
:1040F00001D2012000E00020B1224946C0B203F005
:1041000098F93800BAF8001080B2884201D2012034
:1041100000E00020B2224946C0B203F08AF9DFF87D
:10412000700790F900000028012803D9801E01289B
:104130002FD95CE02A20FFF79FFF0021022002F028
:104140001CFCB61C3100C9B2022002F016FC002192
:10415000022002F012FCAD1C2900C9B2022002F0BC
:104160000CFC2B20FFF788FF0021022002F005FC49
:10417000641C2100C9B2022002F0FFFB00210220D2
:1041800002F0FBFB7F1C3900C9B2022002F0F5FBF4
:104190002DE02A20FFF770FF0021022002F0EDFB46
:1041A000761C3100C9B2022002F0E7FB0021022098
:1041B00002F0E3FB6D1C2900C9B2022002F0DDFB16
:1041C0002B20FFF759FF0021022002F0D6FBA41C90
:1041D0002100C9B2022002F0D0FB0021022002F02F
:1041E000CCFBBF1C3900C9B2022002F0C6FB2C2058
:1041F000FFF742FFBDE8F08700B585B0684603F0E1
:1042000046F90120ADF80000DFF874060088ADF82B
:104210000200DFF874060088ADF80400DFF8D40768
:1042200090F90000002803D002280FD007D30DE03A
:1042300006208DF8060008208DF8070006E008200B
:104240008DF8060010208DF80700FFE70FF24930C7
:1042500003900FF211000490684603F028F905B0AE
:1042600000BD000070B5D0B0002000200820DFF8AD
:1042700074170860DFF80846DFF80C562888431EDC
:104280009BB22088421E92B200210020FFF703FF5C
:10429000002008E0DFF8501709886A4603009BB247
:1042A00022F81310401C0100228889B29142F1D3F8
:1042B000002605E022886946022002F01AFC761CDE
:1042C0003000298880B28842F4D30820DFF828170C
:1042D000086050B070BDDFF8B815087091F90000A3
:1042E0000028012803D9801E012809D910E0802068
:1042F000DFF88C150880A020DFF88C15088007E017
:10430000A020DFF87C1508808020DFF87C1508806D
:104310007047DFF8E8261080DFF8CC060180704790
:10432000F8B504000D0016002000DFF854150988C8
:1043300080B2884201D2012000E00020DFF84475FD
:1043400040F273123900C0B203F073F82800DFF8AE
:104350003815098880B2884201D2012000E000208F
:104360004FF4BA723900C0B203F063F80820DFF8E6
:10437000741608602B009BB2220092B2290089B209
:10438000200080B2FFF787FE310089B2022002F0E0
:1043900059FB0820DFF860160860F1BD0000F8B591
:1043A000D8B005000E0014002800DFF8D4140988E6
:1043B00080B2884201D2012000E00020DFF8C474FE
:1043C00040F2CB123900C0B203F033F83000DFF80E
:1043D000B814098880B2884201D2012000E0002090
:1043E0004FF4E6723900C0B203F023F80020002039
:1043F0000820DFF8F0150860DFF8F80590F90000F4
:10440000002804D0022800F0C08047D3BDE0F31D8F
:104410009BB26A1D92B2310089B2280080B2FFF7C8
:104420003AFE002000E0401C0100C9B206292FDA44
:104430000621DFF8CC2523005BB213FB01F31A44FD
:104440000300DBB21A4412F8C02C00230BE040AD8D
:104450001E00F6B24E4356FA80F6DFF88C753F88A0
:1044600025F8167010E01D00EDB2082DDBDAD50737
:10447000EDD540AD1E00F6B24E4356FA80F6DFF899
:104480007C753F8825F81670D2B252085B1CEAE7AB
:10449000302240A9022002F02CFB76E016F10F0337
:1044A0009BB2EA1D92B2310089B2280080B2FFF7B8
:1044B000F2FD002000E0401C0100C9B208295EDACC
:1044C000DFF84025210049B2090111440300DBB2A5
:1044D0001944B1F50071097823005BB21B011A443D
:1044E0000300DBB21A44B2F5FC72127800231BE021
:1044F0006D461E00F6B2F60056FA80F6DFF8E87454
:104500003F8825F816700CE0CD07F1D56D461E00EA
:10451000F6B2F60056FA80F6DFF8E0743F8825F828
:104520001670C9B249085B1C1D00EDB2082DEBDB0B
:1045300000210DE06B460D00EDB2ED0055FA80F55F
:1045400003EB4503DFF8A0542D88A3F8805012E058
:104550000B00DBB2082BAEDAD307EBD56B460D00B0
:10456000EDB2ED0055FA80F503EB4503DFF88C540E
:104570002D88A3F88050D2B25208491CE8E7802267
:104580006946022002F0B5FAFFE70820DFF8681458
:10459000086059B0F0BD0000F8B504000E00150029
:1045A0002000DFF8DC12098880B2884201D20120A5
:1045B00000E00020DFF8CC7240F222223900C0B2C5
:1045C00002F037FF3000DFF8C012098880B288425D
:1045D00001D2012000E0002040F223223900C0B2C5
:1045E00002F027FF00270EE00CE0380080B22A56C8
:1045F000310089B2380080B2C00010FA84F080B275
:10460000FFF7CDFE7F1C380080B22856002818D056
:10461000DFF8F40390F90000002803D00228E3D06B
:10462000E3D3EFE7380080B22A56310089B23B006D
:104630009BB20620434313FA84F080B2FFF7AFFE2B
:10464000E0E7F1BD2DE9FE43070016001D0038002C
:104650008B4A128880B2904201D2012000E00020F3
:104660000C00DFF8208240F267224146C0B202F01F
:10467000E0FE2000DFF8F416098880B2884201D2FB
:10468000012000E000204FF41A724146C0B202F04F
:10469000D0FE2800C0B2002801D0012000E0002098
:1046A00040F269224146C0B202F0C3FE2800C0B207
:1046B0000B2801DA012000E0002040F26A22414686
:1046C000C0B202F0B6FE5FF001080C210022E946FC
:1046D000484601F0C1FD2900C9B22022E9464846FA
:1046E00001F0BAFD2800C0B20A280CDA03E00A2063
:1046F00000FB08F86D1E2800C0B20028F7D1B6FBF9
:10470000F8F008FB10663100684602F00DFF6A46BB
:10471000210089B2380080B2FFF73EFFBDE8F78381
:10472000000000002DE9F0412DED048B86B005005E
:10473000B0EE408AF0EE608A16001F002800504A52
:10474000128880B2904201D2012000E000200C00CB
:10475000DFF8308140F291224146C0B202F069FE9A
:1047600020004949098880B2884201D2012000E036
:10477000002040F292224146C0B202F05AFE3000C0
:10478000C0B2002801D0012000E0002040F29322B6
:104790004146C0B202F04DFE3000C0B2092801DA35
:1047A000012000E000204FF425724146C0B202F023
:1047B00040FE3800C0B2002801D0012000E00020F7
:1047C00040F295224146C0B202F033FE3800C0B23A
:1047D000072801DA012000E0002040F2962241463D
:1047E000C0B202F026FE9FED819B11210022E84617
:1047F000404601F031FD3800C0B250FA86F1891C04
:104800002022E846404601F027FD09E051EC190B53
:104810000022DFF85C3502F095FF41EC190B761EA3
:104820003000C0B20028F1D151EC180B03F064F84D
:10483000060051EC190B03F05FF896FBF0F003F063
:1048400077F853EC192B02F07DFF02000B0051ECBE
:10485000180B03F035F941EC100B3900C9B268466A
:1048600002F09AFE6A46210089B2280080B2FFF762
:1048700093FE06B0BDEC048BBDE8F0810406314028
:10488000BC650208241D0910BE65020808063140F7
:10489000CB6502082DE9F047D0B0804614009A4657
:1048A0004046DFF8D024128880B2904201D2012025
:1048B00000E000200F00DFF8C09440F2F3224946E8
:1048C000C0B202F0B6FD3800DFF8A014098880B24B
:1048D000884201D2012000E000204FF43D72494699
:1048E000C0B202F0A6FD002C01D0012000E00020A3
:1048F0005A9D599E40F2F5224946C0B202F099FDF8
:104900000020002000200020082036490860E81917
:10491000431E9BB216EB0800421E92B2390089B2C8
:10492000404680B2FFF7B7FB5FF00009589FDDF803
:104930006C8107E0320092B26946022002F0D9F899
:1049400019F10109280080B2814544D2380080B2B3
:1049500000FB09F0290089B2B0FBF1F1504680B2AA
:1049600041432144002210E04FF6FF706B4623F8CC
:10497000120009E04346DBB280B29BB29842F3D208
:1049800000206B4623F81200521C300080B2824295
:10499000D0D2504680B200FB02F033009BB2B0FB95
:1049A000F3F0085C4346DBB2002BE3D10300DBB23B
:1049B000DB08DBB2DB0284465FFA8CFC5FEA9C0C0E
:1049C0005FFA8CFC53EA4C13C0F3C40003436846FF
:1049D00020F81230D8E70820DFF8A013086050B0A4
:1049E000BDE8F08784063140C2650208000000007F
:1049F0000000F03FCC65020888063140C06502081F
:104A00003C0F09108C000910CC6502081FB504206A
:104A1000029004200190022000900223DB4A002132
:104A2000022002F03FFA0323002201216120FFF758
:104A3000DCFA0323002201216020FFF7D6FA0323CA
:104A4000012201216B20FFF7D0FA0323012201216B
:104A50006820FFF7CAFACE4C94F90000FFF73BFC40
:104A6000C8480188C8480088FFF753FC0120C9499D
:104A700008600A2000F018FA0120C7490860782071
:104A800000F012FA0820BE4908601120FFF7F4FA7E
:104A9000782000F009FAB120FFF7EEFA0121022098
:104AA00001F06BFF2C21022001F067FF2D21022075
:104AB00001F063FFB220FFF7DFFA0121022001F0CD
:104AC0005CFF2C21022001F058FF2D21022001F073
:104AD00054FFB320FFF7D0FA0121022001F04DFF6F
:104AE0002C21022001F049FF2D21022001F045FF79
:104AF0000121022001F041FF2C21022001F03DFFA5
:104B00002D21022001F039FFB420FFF7B5FA07216B
:104B1000022001F032FFC020FFF7AEFAA2210220EE
:104B200001F02BFF0221022001F027FF8421022047
:104B300001F023FFC120FFF79FFAC521022001F0F9
:104B40001CFFC220FFF798FA0A21022001F015FF8E
:104B50000021022001F011FFC320FFF78DFA8A2106
:104B6000022001F00AFF2A21022001F006FFC420E2
:104B7000FFF782FA8A21022001F0FFFEEE210220D7
:104B800001F0FBFEC520FFF777FA0E21022001F0AD
:104B9000F4FE3620FFF770FA94F90000002805D0E3
:104BA00002280DD007D303280FD012E0C021022025
:104BB00001F0E3FE0DE00021022001F0DEFE08E03E
:104BC000A021022001F0D9FE03E06021022001F0C3
:104BD000D4FEE020FFF750FA0F21022001F0CDFEB5
:104BE0001A21022001F0C9FE0F21022001F0C5FEAA
:104BF0001821022001F0C1FE2F21022001F0BDFE8C
:104C00002821022001F0B9FE2021022001F0B5FE8A
:104C10002221022001F0B1FE1F21022001F0ADFE91
:104C20001B21022001F0A9FE2321022001F0A5FE94
:104C30003721022001F0A1FE0021022001F09DFE9B
:104C40000721022001F099FE0221022001F095FEC9
:104C50001021022001F091FEE120FFF70DFA0F2153
:104C6000022001F08AFE1B21022001F086FE0F21A6
:104C7000022001F082FE1721022001F07EFE332186
:104C8000022001F07AFE2C21022001F076FE29217B
:104C9000022001F072FE2E21022001F06EFE302172
:104CA000022001F06AFE3021022001F066FE392167
:104CB000022001F062FE3F21022001F05EFE002191
:104CC000022001F05AFE0721022001F056FE0321C6
:104CD000022001F052FE1021022001F04EFE2A2097
:104CE000FFF7CAF90021022001F047FE022102204D
:104CF00001F043FE0021022001F03FFE822102204C
:104D000001F03BFE2B20FFF7B7F90021022001F054
:104D100034FE0321022001F030FE0021022001F0C8
:104D20002CFE8321022001F028FEF020FFF7A4F9D9
:104D30000121022001F021FEF620FFF79DF900215C
:104D4000022001F01AFE3A20FFF796F90521022011
:104D500001F013FE2920FFF78FF9082007490860AA
:104D6000FFF780FAFFF748FA1FBD0000BE65020892
:104D700000002440BC650208241D0910880631404B
:104D800084063140C2650208C065020880C3C901BB
:104D9000CB650208040631400806314040B20028C5
:104DA00004D0012808D003280BD00FE0202901D31C
:104DB000012000E000207047102901D30120FAE70C
:104DC000F8E7082901D30120F5E7F3E70120F2E72E
:104DD00070B505000E0014006400641C310028004A
:104DE00040B2FFF7DBFF012801D101200EE02800CF
:104DF00040B200280DD1B4F5807F08D2674800EB9F
:104E00008600016864F30F210160002070BD01205D
:104E1000FCE76DB2012D0CD1B4F5803F07D260489C
:104E200000EB8600016864F317210160EDE70120C3
:104E3000ECE70120EAE770B504000D001600310030
:104E4000280040B2FFF7AAFF012801D101200DE0A0
:104E50005449200040B251F820006DB265F309209A
:104E600066F3070064B241F82400002070BD38B535
:104E700004000D002900200040B2FFF78FFF012839
:104E800001D101200FE04849086850F0004050F07F
:104E9000407050F47F0064B264F3092065F30700AA
:104EA00008600868002032BDF8B504004FF4FA50DD
:104EB00044433E4D3E4E00212878C001304402F06C
:104EC00043FF14E02878C001304402F03FFFB842AD
:104ED000F8D3384F3C192878C001304402F036FF2F
:104EE0003F1839002878C001304402F02DFF4CF201
:104EF0005137BC42E6D22878C001304402F026FF88
:104F00008442F8D2F1BD38B594B0502100226C46ED
:104F1000200001F0A1F900220121274890F90000AA
:104F2000FFF789FF092200210120FFF751FF00212F
:104F30000120FFF79CFF5FF0FF30009000208DF80C
:104F4000040000208DF8050000208DF806000020E8
:104F50008DF8080003208DF84400012012900120F4
:104F60008DF80700114C124D69462078C001284485
:104F700002F018FE2078C001284402F0DBFE002178
:104F80002078C001284402F0DFFE2078C0012844C8
:104F900002F0ECFE15B030BD000000000010004033
:104FA00000140040000C004000040040CE650208E0
:104FB00000003940B03CFFFFCD650208C0F3C75187
:104FC00081B1FF2906D0C110400721F0E04101F175
:104FD0006051704741020CBF40F4E0016FF00041A6
:104FE0000020704700F0004100020AD0B0FA80FCB7
:104FF00000FA0CF001F16051A1EB0C5101EBD02152
:105000004005704780ED000AC0ED010A80ED021AEC
:105010000021C160002101610021416180ED062A6B
:10502000C0ED071A70470000DFED8F0ADFED8E0A32
:10503000DFED8D0A80ED030A90ED030AD0ED040A3E
:1050400030EE600AD0ED030A90ED041AF8EE001A73
:1050500090ED032A01EE212A90ED051A32EE011A95
:105060009B49D0ED001A21EE800AD0ED011A01EE25
:10507000A00AD0ED020A00EE810A81ED000A026961
:105080004261C268026190ED080AD1ED000A30EE7B
:10509000200A80ED080A90ED070AD0ED080AB4EE68
:1050A000600AF1EE10FA02D5C16901620AE090EDE2
:1050B000080AD0ED060AB4EE600AF1EE10FA01D546
:1050C0008169016290ED080A70478248D0ED000ABC
:1050D000814890ED001A8148D0ED001A70EE611AF7
:1050E0007F4960EE800A41EE210AC1ED000A80EDA1
:1050F000000A91ED000A70477A48794991ED000A5B
:105100007949D1ED000A30EE600A80ED000A774956
:1051100091ED000A7649D1ED000A764990ED001A2A
:10512000D1ED001A31EE611A734AD0ED001A20EE6B
:10513000210A00EE810A82ED000A0068086092ED03
:10514000000A704770B52DED028B654C6B4890EDF1
:10515000000AFFF7BAFF84ED000A9FED5A1AD4ED5A
:10516000000A9FED590A02F097FE84ED000A624C96
:10517000FFF7C2FF84ED000A61490888614AB2F96D
:105180000000002802D06048008807E0B2F9020061
:10519000002802D05D48008800E008885C4D0100CE
:1051A00089B200EE101AB8EE400AD4ED000A30EED3
:1051B000600A85ED000A574E80B200EE100AB8EE84
:1051C000400AD4ED000A30EE200A86ED000ABAEE5D
:1051D000048ADFED3E8AB0EE681AD5ED000AB0EE23
:1051E000480A02F059FE85ED000AB0EE681AD6EDC5
:1051F000000AB0EE480A02F04FFE86ED000A464A69
:1052000095ED000ABDEEC00A10EE101A92ED000AEC
:10521000BDEEC00A10EE100A091A96ED000ABDEEA6
:10522000C00A10EE104A92ED010ABDEEC00A10EE5F
:10523000100A241A09B200EE101AB8EEC00A374854
:10524000FFF7F2FE364880ED000A24B200EE104A65
:10525000B8EEC00A3348FFF7E7FE334880ED000A96
:10526000BDEC028B70BD0000000000001E48002154
:1052700001601B48002101601A48002101601E489E
:1052800000210160224800210160224800210160C4
:105290002348002101602448002101601F480021AB
:1052A00001620021C16000210161002141611D48AE
:1052B000002101620021C1600021016100214161E2
:1052C0007047000000000C4300000CC30000F042D7
:1052D000381B0308F0640208F4640208501B03083A
:1052E000441B0308481B0308F41A0308F864020867
:1052F000FC640208541B03084C1B0308FC1A030837
:10530000B2650208881A0308B6650208B465020887
:105310003C1B0308401B0308B01A03086C19030860
:10532000301B030890190308341B030810B5DFF87D
:105330008C490020207000F083FB012000F0FBFB73
:105340002178DFF80C0C02F0B7FD10BD10B5DFF8C6
:105350007009B0F90800012878D1DFF8F84BE0783F
:10536000012807D1012020710020E070DFF85409E6
:1053700002F0A2FD2078002868D1DFF8100A00783A
:10538000082863DADFF8080A007808285EDADFF810
:10539000280A0078082859DADFF8200A0078082857
:1053A00054DA012020708020DFF8141A0860DFF83A
:1053B000140A007800281ED1DFF80C0A00780828AB
:1053C00019D100F007FFDFF8901B91F85003002877
:1053D00008D091F85023D420424301EB0200002171
:1053E00000F8CE1CDFF8E40900210160DFF8E009D5
:1053F0000021016022E000F0EDFEDFF8D00900217D
:105400000160DFF8CC0900210160DFF84C1B91F846
:105410005003002806D091F85023D420424301EBDA
:105420000200D438DFF8AC0990ED000AF1EE000A72
:1054300080EE200ABDEEC00A10EE100ADFF8540A12
:105440008068DFF8541A086000F06BFADFF8044B4C
:105450002078012840F08780DFF868190878002854
:1054600053D1DFF86409007808284ED100F07CF8A9
:10547000E078012877D06078012803D1A078401C1B
:10548000A07070E02079012802D0607800286AD1ED
:10549000DFF8080A00781F2865DBDFF8040A0078C7
:1054A0001F2860DBDFF8FC09407901285BD1002070
:1054B0002070002060700020A0700020E0700020AC
:1054C000207100F091FEDFF8901A91F85003002847
:1054D00010D091F85023D420424301EB0200CC3885
:1054E000DFF8F01891ED000AF0EE000A20EE200A35
:1054F00080ED000A00F081F800F090F800F06EFBFB
:105500008020DFF85C1A08602DE0087801282AD195
:10551000DFF8880900781F2825DBDFF88409007888
:105520001F2820DB0020207000F05EFEDFF8281A24
:1055300091F85003002810D091F85023D420424312
:1055400001EB0200CC38DFF88C1891ED000AF0EE88
:10555000000A20EE200A80ED000A00F03FFB8020C8
:10556000DFF8FC19086010BD80B5DFF8EC1991F880
:105570005003002840D091F85023D420424301EB3F
:105580000200B0F1D401DFF84C0890ED000ADFF81A
:105590004028D2ED000A70EE600ADFF8300890ED86
:1055A000001A71EE200AC0ED000A82ED000A90EDAB
:1055B000000AF1EE000AB4EE600AF1EE10FA1BDB0D
:1055C0008A79322A18DA8A7901EB8202DFF8C43844
:1055D00093ED020ADFF8C038D3ED000A30EE600A1E
:1055E00082ED030A8A79521C8A7100220260DFF878
:1055F0006409D42202F084FC01BD80B5DFF858199B
:1056000091F85003002804D1DFF8580902F054FC47
:1056100003E091F8500300F073FB01BD80B5DFF8A3
:10562000381991F85003002804D1DFF8400902F03E
:1056300043FC03E091F8500300F054FB01BD10B5AA
:10564000DFF8144994F85003002804D1DFF8180952
:1056500002F032FC0FE094F8500300F035FBDFF865
:10566000F40894F85023D4214A4304EB0201D439BE
:10567000D42202F045FC10BD10B5DFF8DC4894F8E8
:105680005003002804D1DFF8DC0802F015FC07E025
:10569000DFF8DC0802F010FC94F8500300F030FB57
:1056A00010BD000080ED030ADFEDBF0A90ED051A82
:1056B00000EE201A80ED051AD0ED050A9FED6F1A55
:1056C000F4EE410AF1EE10FA02DBDFF8A8184161AE
:1056D000FAEE040A90ED051AB4EE601AF1EE10FA33
:1056E00001D5C0ED050AD0ED040A70EE600A9FED09
:1056F000AE1AC0EE810A90ED001A21EE001AD0ED2C
:10570000011A90ED052A01EE821AD0ED021A01EE7F
:10571000A01A80ED081AD0ED060A90ED081AF4EEF2
:10572000410AF1EE10FA01D581690162D0ED080A53
:1057300090ED071AF4EE410AF1EE10FA01D5C169B5
:10574000016280ED040A90ED080A704710B52DED56
:10575000028BDFF800080078002804D1DFF8180871
:105760000021016087E0DFF8144800F089F884ED3B
:10577000000ADFF80C08DFF81C1791ED020ADFF8C9
:105780001817D1ED000A30EE600A80ED000A94EDA2
:10579000000AD0ED000A30EE600ADFED840AB4EEB4
:1057A000600AF1EE10FA03DBDFED810A30EE200A29
:1057B000DFED800AB4EE600AF1EE10FA03D5DFEDFA
:1057C0007E0A30EE200ADFF8B047DFF8B807FFF7AF
:1057D00069FF84ED000ADFF8B007018800EE101AB7
:1057E000B8EE400AD4ED000A30EE600A008800EE00
:1057F000900AF8EE600A94ED001A70EE810A9FEDAF
:105800006F1AB4EE410AF1EE10FA01DB9FED8B0A3C
:10581000F3EE041AB4EE610AF1EE10FA01D5B0EE1F
:10582000610AF4EE410AF1EE10FA01DBDFED830AC2
:10583000F4EE610AF1EE10FA01D5F0EE610ADFF83C
:105840004C0790ED001A30EE410A90ED011A30EE4F
:10585000C18ADFF83C07FFF7E7FBDFF8380780ED88
:10586000000AB0EE480ADFF83007FFF7DDFBDFF88B
:105870002C0780ED000ABDEC028B10BD0100204119
:1058800010B4DFF8D41691F85003002802D19FED30
:10589000D20A44E091F85023D420424301EB0200A5
:1058A000B0F1D401DFF82C0590ED000ADFF8F02606
:1058B000D2ED000A70EE600ADFF8E80690ED001AFB
:1058C00071EE200AC0ED000A82ED000A90ED000A98
:1058D000F1EE000AB4EE600AF1EE10FA0BDBDFF82D
:1058E000C82613788C79641EA34202DA13785B1CF5
:1058F000137000220260DFF8B02610788B7998428E
:1059000002D38879401E10708879002802D19FED5B
:10591000B20A04E0107801EB800090ED030A10BC9D
:1059200070470220DFF880160870DFF87806002143
:105930000160DFF86C0600210160704710B5DFF8E8
:10594000181691F85003002804D1DFF8600602F021
:10595000B3FA27E091F85023D420424301EB020030
:10596000B0F1D40401202070012060700020A070EC
:1059700000F030FC0020A071DFF85004002101602D
:10598000DFF84C0400210160DFF808058068DFF8CB
:1059900008150860FFF7C5FFDFF8B8052100D4221D
:1059A00002F0AEFA10BD00000AD7A33B0100344359
:1059B0000000B4C3000034C30000B4430100A0429F
:1059C00010B5DFF8941591F85003002804D1DFF8E2
:1059D000E00502F071FA2FE091F85023D420424301
:1059E00001EB0200B0F1D404012020700120E0702E
:1059F00000202071002060700020A07000F0EAFB01
:105A00000020A071DFF8C40300210160DFF8C003AB
:105A100000210160DFF87C048068DFF87C140860F6
:105A2000FFF77FFFDFF82C052100D42202F068FA8F
:105A30008020DFF88C13086010BD00000000A04239
:105A400070B54FF456710022DFF80C452500280090
:105A500000F002FC012084F85103022084F8520374
:105A6000032084F85303042084F85403042084F8AA
:105A70005603002084F85503002084F850030020CA
:105A800084F8570300253CE0D42000212A00D2B23C
:105A90004243A1542900C9B24143214400224A7023
:105AA0002900C9B24143214400228A702900C9B2A9
:105AB000414321440022CA702900C9B24143214414
:105AC00000220A712900C9B24143214400224A71CF
:105AD0002900C9B24143214400228A712900C9B278
